:020000020000FC
:040000000C94330029
:04000C000C94A503A8
:040034000C948E0397
:100040000C948403C0F9A4B0999282F88090201D8A
:10005000201F201F20201F201F2031283130313049
:100060003131303130310FEF0DBF08E00EBFF89461
:1000700000E80093610004E0009361000E947A03AD
:1000800001E000936E000E946D0301E000936F0099
:100090000FEF0AB907B900E00BB908B900E004B9DD
:1000A00009E204B906E105B928982B982D9806E1D4
:1000B00000936B0001E0009368000E947F034424DA
:1000C00055243324CC24DD2410E02FEF30E040E031
:1000D00050E060E070E080E090E0A1E0B0E0C1E0DE
:1000E000D0E078940E94A200103089F0113091F095
:1000F000123099F01330A1F01430A9F01530B1F09E
:100100001630B9F01730C1F01830C9F0EBCF0E94AB
:100110007E01E8CF0E948601E5CF0E948F01E2CFE9
:100120000E949801DFCF0E94A101DCCF0E94AA01AA
:10013000D9CF0E94B301D6CF0E94BB01D3CF0E947A
:10014000C301D0CF103089F01130D1F0123069F0F6
:10015000133059F01430A1F0153091F01630D9F069
:100160001730C9F0183011F10895082F03700030CE
:10017000F1F0013051F10230B1F10330F1F10895A5
:10018000082F0370003059F1013051F1023049F16C
:10019000033041F10895082F03700030C1F10130A0
:1001A000B9F10230B1F10330A9F1089584C041984A
:1001B000429843984098E4E4F0E0E30F449041987B
:1001C00042984398409A4BB80895E4E4F0E0E60F73
:1001D0004490409842984398419A4BB808951BC068
:1001E00024C02DC036C0E4E4F0E0E70F449040980E
:1001F00041984398429A4BB80895E4E4F0E0E90F3F
:100200004490409841984298439A4BB808952BC027
:1002100034C03DC046C0E4E4F0E0EC0F44904198A7
:1002200042984398409A4BB80895E4E4F0E0ED0F0B
:100230004490409842984398419A4BB80895E4E41A
:10024000F0E0EA0F4490409841984398429A4BB8A6
:100250000895E4E4F0E0EB0F449040984198429810
:10026000439A4BB80895E4E4F0E0E50D44904198DA
:1002700042984398409A4BB80895E4E4F0E0E30DC7
:100280004490409842984398419A4BB80895E4E4CA
:10029000F0E0EC0D4490409841984398429A4BB856
:1002A0000895E4E4F0E0ED0D4490409841984298C0
:1002B000439A4BB80895082F0370003039F001308D
:1002C00059F0023079F0033099F00895419842983E
:1002D0004398409A8BB80895409842984398419A21
:1002E0006BB80895409841984398429A8BB8089506
:1002F000409841984298439A6BB80895449845981D
:100300002B98413059F440E081C10895449A4598B2
:100310002B98413019F440E079C10895089544982C
:10032000459A2B98289A523099F15330A9F10895A3
:10033000449845982B9A289A523091F15330A1F164
:100340000895449A45982B9A289A523089F153304F
:1003500099F10895449A459A2B98289A523081F140
:10036000533091F108954498459A2B9A523081F177
:10037000533091F10895449A459A2B9A523081F165
:10038000533091F108950E9405020E940A020895D7
:100390000E940D0250E008950E941A0250E0089554
:1003A0000E94250250E008950E94350250E0089511
:1003B0000E94760250E008950E94A00250E0089545
:1003C0000E94450250E008950E94530250E00895B3
:1003D0000E94B00250E008950E94C20250E00895C9
:1003E0000E94D30250E008950E94ED0250E008956B
:1003F000531609F00895361609F00895C71609F046
:100400000895D91601F01D9A08950EE3602E07E6AF
:10041000802E08951D991D9A089533953A3011F054
:100420004490089530E06395663009F0089530E017
:1004300060E008953A953F3F09F0089539E06A95E4
:100440006F3F09F0089565E00895923009F003C008
:10045000733039F000C073957A3031F470E09395C1
:1004600003C070E090E000C00895903009F003C030
:10047000703039F000C07A957F3F31F479E09A9579
:10048000089573E092E008950895A395AA3019F0B5
:100490000E9487020895A0E0B395B43009F0089552
:1004A000B0E0A1E00895B03009F004C0AA95A030F2
:1004B00041F00895AA95AF3F19F4A9E0BA950895BF
:1004C0000895EAE5F0E06D2E660C862C660C660C4D
:1004D000680C0C2F060D0A95E00F0491B02FB6950D
:1004E000B695B695B6950F70A02F0895D13009F046
:1004F00003C0C23049F000C0C395CA3009F401C03E
:100500000895C0E0D3950895D0E0C1E00895EEE4E9
:10051000F0E06D2E660C862C660C660C680C0C2FB9
:10052000060D0A95E00F0491AB2EAA0CBA2CAA0C6A
:10053000AA0CAB0CAA0EA01610F00E94500208954F
:10054000D03009F003C0C13039F000C0CA95CF3FA8
:1005500031F4C9E0DA950895C2E0D1E00895089534
:10056000052D03950A3019F0502E44900895552416
:10057000032D0395063011F0302E089500E0502E23
:10058000302E0895052D0A950F3F11F0502E089535
:1005900009E0502E032D0A950F3F11F0302E0895DB
:1005A00005E0302E08950D2D023009F005C0D02E43
:1005B0000C2D033069F000C00C2D03950A30C02EBD
:1005C00059F40C2D00E0C02E0D2D0395D02E04C043
:1005D00000E0C02ED02E00C008950D2D003009F08F
:1005E00004C00C2D003061F000C00C2D0A95C02E07
:1005F0000F3F59F409E0C02E0D2D0A95D02E089515
:1006000003E0C02E02E0D02E0895089533953A30CD
:1006100019F00E94F801089530E063950E94F801F6
:10062000663019F00E94F801089560E00E94F80118
:10063000923039F473950E94F801743051F40CC073
:10064000089573957A3029F4939570E00E94F8012B
:1006500008950E94F801089530E060E070E090E0B5
:100660000E94F8010E947F03A395AA3019F00E940E
:1006700054030895A0E0B395B43009F00895B0E0B4
:10068000A1E00E9444030895D13009F003C0C230B4
:1006900041F000C0C395CA30F9F400C0C0E0D39562
:1006A0000895D0E0C1E00895EEE4F0E06D2E660C10
:1006B000862C660C660C680C0C2F060D0A95E00F54
:1006C0000491AB2EAA0CBA2CAA0CAA0CAB0CAA0E45
:1006D000A01610F00E943F03089501E000938100EE
:1006E00000E00093850000E00093840000E00093A8
:1006F0008000089502E005BD00E006BD0895E4E431
:10070000F0E044904BB80895A89A00E006BD8395A8
:10071000843609F0189580E0189A18957F927FB674
:100720007F9200E00093850000E000938400123087
:1007300041F0133031F0143021F0153011F041E068
:1007400000C07F907FBE7F9018957F927FB67F928A
:1007500093B09216E9F0292D94FE14C000C0103019
:10076000D9F01130D1F01230C9F01330E1F014306B
:1007700029F1153041F1163059F1173071F1183067
:1007800089F106C01395193009F002C010E000C0CD
:100790007F907FBE7F901895FBCFFACF1A9B08C041
:1007A000199B09C0F5CF1A9B03C0199B04C0F0CF59
:1007B0001A9B52E0EDCF199B53E0EACF1A9BF8CF7A
:1007C000199BF9CFE5CF1A9BF3CF199BF4CFE0CF5C
:1007D0001A9BEECF199BEFCFDBCF1A9BE9CF199B6A
:0607E000EACFD6CFD5CF11
:00000001FF
